{
  "_format": "hh-sol-artifact-1",
  "contractName": "NFTMarket",
  "sourceName": "contracts/NFTMarket.sol",
  "abi": [
    {
      "inputs": [],
      "stateMutability": "nonpayable",
      "type": "constructor"
    },
    {
      "anonymous": false,
      "inputs": [
        {
          "indexed": true,
          "internalType": "address",
          "name": "owner",
          "type": "address"
        },
        {
          "indexed": true,
          "internalType": "address",
          "name": "approved",
          "type": "address"
        },
        {
          "indexed": true,
          "internalType": "uint256",
          "name": "tokenId",
          "type": "uint256"
        }
      ],
      "name": "Approval",
      "type": "event"
    },
    {
      "anonymous": false,
      "inputs": [
        {
          "indexed": true,
          "internalType": "address",
          "name": "owner",
          "type": "address"
        },
        {
          "indexed": true,
          "internalType": "address",
          "name": "operator",
          "type": "address"
        },
        {
          "indexed": false,
          "internalType": "bool",
          "name": "approved",
          "type": "bool"
        }
      ],
      "name": "ApprovalForAll",
      "type": "event"
    },
    {
      "anonymous": false,
      "inputs": [
        {
          "indexed": false,
          "internalType": "uint256",
          "name": "_fromTokenId",
          "type": "uint256"
        },
        {
          "indexed": false,
          "internalType": "uint256",
          "name": "_toTokenId",
          "type": "uint256"
        }
      ],
      "name": "BatchMetadataUpdate",
      "type": "event"
    },
    {
      "anonymous": false,
      "inputs": [
        {
          "indexed": false,
          "internalType": "uint256",
          "name": "_tokenId",
          "type": "uint256"
        }
      ],
      "name": "MetadataUpdate",
      "type": "event"
    },
    {
      "anonymous": false,
      "inputs": [
        {
          "indexed": true,
          "internalType": "address",
          "name": "from",
          "type": "address"
        },
        {
          "indexed": true,
          "internalType": "address",
          "name": "to",
          "type": "address"
        },
        {
          "indexed": true,
          "internalType": "uint256",
          "name": "tokenId",
          "type": "uint256"
        }
      ],
      "name": "Transfer",
      "type": "event"
    },
    {
      "inputs": [
        {
          "internalType": "address",
          "name": "to",
          "type": "address"
        },
        {
          "internalType": "uint256",
          "name": "tokenId",
          "type": "uint256"
        }
      ],
      "name": "approve",
      "outputs": [],
      "stateMutability": "nonpayable",
      "type": "function"
    },
    {
      "inputs": [
        {
          "internalType": "address",
          "name": "owner",
          "type": "address"
        }
      ],
      "name": "balanceOf",
      "outputs": [
        {
          "internalType": "uint256",
          "name": "",
          "type": "uint256"
        }
      ],
      "stateMutability": "view",
      "type": "function"
    },
    {
      "inputs": [
        {
          "internalType": "uint256",
          "name": "tokenId",
          "type": "uint256"
        }
      ],
      "name": "getApproved",
      "outputs": [
        {
          "internalType": "address",
          "name": "",
          "type": "address"
        }
      ],
      "stateMutability": "view",
      "type": "function"
    },
    {
      "inputs": [
        {
          "internalType": "address",
          "name": "_userAddress",
          "type": "address"
        }
      ],
      "name": "getTokenURI",
      "outputs": [
        {
          "internalType": "string[]",
          "name": "",
          "type": "string[]"
        }
      ],
      "stateMutability": "view",
      "type": "function"
    },
    {
      "inputs": [
        {
          "internalType": "address",
          "name": "owner",
          "type": "address"
        },
        {
          "internalType": "address",
          "name": "operator",
          "type": "address"
        }
      ],
      "name": "isApprovedForAll",
      "outputs": [
        {
          "internalType": "bool",
          "name": "",
          "type": "bool"
        }
      ],
      "stateMutability": "view",
      "type": "function"
    },
    {
      "inputs": [
        {
          "internalType": "string",
          "name": "tokenURI",
          "type": "string"
        }
      ],
      "name": "mint",
      "outputs": [
        {
          "internalType": "uint256",
          "name": "",
          "type": "uint256"
        }
      ],
      "stateMutability": "nonpayable",
      "type": "function"
    },
    {
      "inputs": [],
      "name": "name",
      "outputs": [
        {
          "internalType": "string",
          "name": "",
          "type": "string"
        }
      ],
      "stateMutability": "view",
      "type": "function"
    },
    {
      "inputs": [
        {
          "internalType": "uint256",
          "name": "tokenId",
          "type": "uint256"
        }
      ],
      "name": "ownerOf",
      "outputs": [
        {
          "internalType": "address",
          "name": "",
          "type": "address"
        }
      ],
      "stateMutability": "view",
      "type": "function"
    },
    {
      "inputs": [
        {
          "internalType": "address",
          "name": "from",
          "type": "address"
        },
        {
          "internalType": "address",
          "name": "to",
          "type": "address"
        },
        {
          "internalType": "uint256",
          "name": "tokenId",
          "type": "uint256"
        }
      ],
      "name": "safeTransferFrom",
      "outputs": [],
      "stateMutability": "nonpayable",
      "type": "function"
    },
    {
      "inputs": [
        {
          "internalType": "address",
          "name": "from",
          "type": "address"
        },
        {
          "internalType": "address",
          "name": "to",
          "type": "address"
        },
        {
          "internalType": "uint256",
          "name": "tokenId",
          "type": "uint256"
        },
        {
          "internalType": "bytes",
          "name": "data",
          "type": "bytes"
        }
      ],
      "name": "safeTransferFrom",
      "outputs": [],
      "stateMutability": "nonpayable",
      "type": "function"
    },
    {
      "inputs": [
        {
          "internalType": "address",
          "name": "operator",
          "type": "address"
        },
        {
          "internalType": "bool",
          "name": "approved",
          "type": "bool"
        }
      ],
      "name": "setApprovalForAll",
      "outputs": [],
      "stateMutability": "nonpayable",
      "type": "function"
    },
    {
      "inputs": [
        {
          "internalType": "bytes4",
          "name": "interfaceId",
          "type": "bytes4"
        }
      ],
      "name": "supportsInterface",
      "outputs": [
        {
          "internalType": "bool",
          "name": "",
          "type": "bool"
        }
      ],
      "stateMutability": "view",
      "type": "function"
    },
    {
      "inputs": [],
      "name": "symbol",
      "outputs": [
        {
          "internalType": "string",
          "name": "",
          "type": "string"
        }
      ],
      "stateMutability": "view",
      "type": "function"
    },
    {
      "inputs": [
        {
          "internalType": "uint256",
          "name": "tokenId",
          "type": "uint256"
        }
      ],
      "name": "tokenURI",
      "outputs": [
        {
          "internalType": "string",
          "name": "",
          "type": "string"
        }
      ],
      "stateMutability": "view",
      "type": "function"
    },
    {
      "inputs": [
        {
          "internalType": "address",
          "name": "from",
          "type": "address"
        },
        {
          "internalType": "address",
          "name": "to",
          "type": "address"
        },
        {
          "internalType": "uint256",
          "name": "tokenId",
          "type": "uint256"
        }
      ],
      "name": "transferFrom",
      "outputs": [],
      "stateMutability": "nonpayable",
      "type": "function"
    }
  ],
  "bytecode": "0x60806040523480156200001157600080fd5b506040518060400160405280600a81526020017f4e46542e4d61726b6574000000000000000000000000000000000000000000008152506040518060400160405280600481526020017f4e46544d0000000000000000000000000000000000000000000000000000000081525081600090816200008f919062000324565b508060019081620000a1919062000324565b5050506200040b565b600081519050919050565b7f4e487b7100000000000000000000000000000000000000000000000000000000600052604160045260246000fd5b7f4e487b7100000000000000000000000000000000000000000000000000000000600052602260045260246000fd5b600060028204905060018216806200012c57607f821691505b602082108103620001425762000141620000e4565b5b50919050565b60008190508160005260206000209050919050565b60006020601f8301049050919050565b600082821b905092915050565b600060088302620001ac7fffffffffffffffffffffffffffffffffffffffffffffffffffffffffffffffff826200016d565b620001b886836200016d565b95508019841693508086168417925050509392505050565b6000819050919050565b6000819050919050565b600062000205620001ff620001f984620001d0565b620001da565b620001d0565b9050919050565b6000819050919050565b6200022183620001e4565b6200023962000230826200020c565b8484546200017a565b825550505050565b600090565b6200025062000241565b6200025d81848462000216565b505050565b5b8181101562000285576200027960008262000246565b60018101905062000263565b5050565b601f821115620002d4576200029e8162000148565b620002a9846200015d565b81016020851015620002b9578190505b620002d1620002c8856200015d565b83018262000262565b50505b505050565b600082821c905092915050565b6000620002f960001984600802620002d9565b1980831691505092915050565b6000620003148383620002e6565b9150826002028217905092915050565b6200032f82620000aa565b67ffffffffffffffff8111156200034b576200034a620000b5565b5b62000357825462000113565b6200036482828562000289565b600060209050601f8311600181146200039c576000841562000387578287015190505b62000393858262000306565b86555062000403565b601f198416620003ac8662000148565b60005b82811015620003d657848901518255600182019150602085019450602081019050620003af565b86831015620003f65784890151620003f2601f891682620002e6565b8355505b6001600288020188555050505b505050505050565b612dbe806200041b6000396000f3fe608060405234801561001057600080fd5b50600436106100f55760003560e01c80636352211e11610097578063b88d4fde11610066578063b88d4fde14610296578063c87b56dd146102b2578063d85d3d27146102e2578063e985e9c514610312576100f5565b80636352211e146101fc57806370a082311461022c57806395d89b411461025c578063a22cb4651461027a576100f5565b8063095ea7b3116100d3578063095ea7b31461017857806323b872dd1461019457806342842e0e146101b057806361c028e7146101cc576100f5565b806301ffc9a7146100fa57806306fdde031461012a578063081812fc14610148575b600080fd5b610114600480360381019061010f9190611b92565b610342565b6040516101219190611bda565b60405180910390f35b6101326103a3565b60405161013f9190611c85565b60405180910390f35b610162600480360381019061015d9190611cdd565b610435565b60405161016f9190611d4b565b60405180910390f35b610192600480360381019061018d9190611d92565b61047b565b005b6101ae60048036038101906101a99190611dd2565b610592565b005b6101ca60048036038101906101c59190611dd2565b6105f2565b005b6101e660048036038101906101e19190611e25565b610612565b6040516101f39190611f5e565b60405180910390f35b61021660048036038101906102119190611cdd565b61072a565b6040516102239190611d4b565b60405180910390f35b61024660048036038101906102419190611e25565b6107b0565b6040516102539190611f8f565b60405180910390f35b610264610867565b6040516102719190611c85565b60405180910390f35b610294600480360381019061028f9190611fd6565b6108f9565b005b6102b060048036038101906102ab919061214b565b61090f565b005b6102cc60048036038101906102c79190611cdd565b610971565b6040516102d99190611c85565b60405180910390f35b6102fc60048036038101906102f7919061226f565b610a83565b6040516103099190611f8f565b60405180910390f35b61032c600480360381019061032791906122b8565b610b2b565b6040516103399190611bda565b60405180910390f35b6000634906490660e01b7bffffffffffffffffffffffffffffffffffffffffffffffffffffffff1916827bffffffffffffffffffffffffffffffffffffffffffffffffffffffff1916148061039c575061039b82610bbf565b5b9050919050565b6060600080546103b290612327565b80601f01602080910402602001604051908101604052809291908181526020018280546103de90612327565b801561042b5780601f106104005761010080835404028352916020019161042b565b820191906000526020600020905b81548152906001019060200180831161040e57829003601f168201915b5050505050905090565b600061044082610ca1565b6004600083815260200190815260200160002060009054906101000a900473ffffffffffffffffffffffffffffffffffffffff169050919050565b60006104868261072a565b90508073ffffffffffffffffffffffffffffffffffffffff168373ffffffffffffffffffffffffffffffffffffffff16036104f6576040517f08c379a00000000000000000000000000000000000000000000000000000000081526004016104ed906123ca565b60405180910390fd5b8073ffffffffffffffffffffffffffffffffffffffff16610515610cec565b73ffffffffffffffffffffffffffffffffffffffff16148061054457506105438161053e610cec565b610b2b565b5b610583576040517f08c379a000000000000000000000000000000000000000000000000000000000815260040161057a9061245c565b60405180910390fd5b61058d8383610cf4565b505050565b6105a361059d610cec565b82610dad565b6105e2576040517f08c379a00000000000000000000000000000000000000000000000000000000081526004016105d9906124ee565b60405180910390fd5b6105ed838383610e42565b505050565b61060d8383836040518060200160405280600081525061090f565b505050565b6060600860008373ffffffffffffffffffffffffffffffffffffffff1673ffffffffffffffffffffffffffffffffffffffff168152602001908152602001600020805480602002602001604051908101604052809291908181526020016000905b8282101561071f57838290600052602060002001805461069290612327565b80601f01602080910402602001604051908101604052809291908181526020018280546106be90612327565b801561070b5780601f106106e05761010080835404028352916020019161070b565b820191906000526020600020905b8154815290600101906020018083116106ee57829003601f168201915b505050505081526020019060010190610673565b505050509050919050565b6000806107368361113b565b9050600073ffffffffffffffffffffffffffffffffffffffff168173ffffffffffffffffffffffffffffffffffffffff16036107a7576040517f08c379a000000000000000000000000000000000000000000000000000000000815260040161079e9061255a565b60405180910390fd5b80915050919050565b60008073ffffffffffffffffffffffffffffffffffffffff168273ffffffffffffffffffffffffffffffffffffffff1603610820576040517f08c379a0000000000000000000000000000000000000000000000000000000008152600401610817906125ec565b60405180910390fd5b600360008373ffffffffffffffffffffffffffffffffffffffff1673ffffffffffffffffffffffffffffffffffffffff168152602001908152602001600020549050919050565b60606001805461087690612327565b80601f01602080910402602001604051908101604052809291908181526020018280546108a290612327565b80156108ef5780601f106108c4576101008083540402835291602001916108ef565b820191906000526020600020905b8154815290600101906020018083116108d257829003601f168201915b5050505050905090565b61090b610904610cec565b8383611178565b5050565b61092061091a610cec565b83610dad565b61095f576040517f08c379a0000000000000000000000000000000000000000000000000000000008152600401610956906124ee565b60405180910390fd5b61096b848484846112e4565b50505050565b606061097c82610ca1565b600060066000848152602001908152602001600020805461099c90612327565b80601f01602080910402602001604051908101604052809291908181526020018280546109c890612327565b8015610a155780601f106109ea57610100808354040283529160200191610a15565b820191906000526020600020905b8154815290600101906020018083116109f857829003601f168201915b505050505090506000610a26611340565b90506000815103610a3b578192505050610a7e565b600082511115610a70578082604051602001610a58929190612648565b60405160208183030381529060405292505050610a7e565b610a7984611357565b925050505b919050565b600080610a9060076113bf565b9050610a9c33826113cd565b610aa681846115ea565b600860003373ffffffffffffffffffffffffffffffffffffffff1673ffffffffffffffffffffffffffffffffffffffff16815260200190815260200160002083908060018154018082558091505060019003906000526020600020016000909190919091509081610b179190612818565b50610b22600761168e565b80915050919050565b6000600560008473ffffffffffffffffffffffffffffffffffffffff1673ffffffffffffffffffffffffffffffffffffffff16815260200190815260200160002060008373ffffffffffffffffffffffffffffffffffffffff1673ffffffffffffffffffffffffffffffffffffffff16815260200190815260200160002060009054906101000a900460ff16905092915050565b60007f80ac58cd000000000000000000000000000000000000000000000000000000007bffffffffffffffffffffffffffffffffffffffffffffffffffffffff1916827bffffffffffffffffffffffffffffffffffffffffffffffffffffffff19161480610c8a57507f5b5e139f000000000000000000000000000000000000000000000000000000007bffffffffffffffffffffffffffffffffffffffffffffffffffffffff1916827bffffffffffffffffffffffffffffffffffffffffffffffffffffffff1916145b80610c9a5750610c99826116a4565b5b9050919050565b610caa8161170e565b610ce9576040517f08c379a0000000000000000000000000000000000000000000000000000000008152600401610ce09061255a565b60405180910390fd5b50565b600033905090565b816004600083815260200190815260200160002060006101000a81548173ffffffffffffffffffffffffffffffffffffffff021916908373ffffffffffffffffffffffffffffffffffffffff160217905550808273ffffffffffffffffffffffffffffffffffffffff16610d678361072a565b73ffffffffffffffffffffffffffffffffffffffff167f8c5be1e5ebec7d5bd14f71427d1e84f3dd0314c0f7b2291e5b200ac8c7c3b92560405160405180910390a45050565b600080610db98361072a565b90508073ffffffffffffffffffffffffffffffffffffffff168473ffffffffffffffffffffffffffffffffffffffff161480610dfb5750610dfa8185610b2b565b5b80610e3957508373ffffffffffffffffffffffffffffffffffffffff16610e2184610435565b73ffffffffffffffffffffffffffffffffffffffff16145b91505092915050565b8273ffffffffffffffffffffffffffffffffffffffff16610e628261072a565b73ffffffffffffffffffffffffffffffffffffffff1614610eb8576040517f08c379a0000000000000000000000000000000000000000000000000000000008152600401610eaf9061295c565b60405180910390fd5b600073ffffffffffffffffffffffffffffffffffffffff168273ffffffffffffffffffffffffffffffffffffffff1603610f27576040517f08c379a0000000000000000000000000000000000000000000000000000000008152600401610f1e906129ee565b60405180910390fd5b610f34838383600161174f565b8273ffffffffffffffffffffffffffffffffffffffff16610f548261072a565b73ffffffffffffffffffffffffffffffffffffffff1614610faa576040517f08c379a0000000000000000000000000000000000000000000000000000000008152600401610fa19061295c565b60405180910390fd5b6004600082815260200190815260200160002060006101000a81549073ffffffffffffffffffffffffffffffffffffffff02191690556001600360008573ffffffffffffffffffffffffffffffffffffffff1673ffffffffffffffffffffffffffffffffffffffff168152602001908152602001600020600082825403925050819055506001600360008473ffffffffffffffffffffffffffffffffffffffff1673ffffffffffffffffffffffffffffffffffffffff16815260200190815260200160002060008282540192505081905550816002600083815260200190815260200160002060006101000a81548173ffffffffffffffffffffffffffffffffffffffff021916908373ffffffffffffffffffffffffffffffffffffffff160217905550808273ffffffffffffffffffffffffffffffffffffffff168473ffffffffffffffffffffffffffffffffffffffff167fddf252ad1be2c89b69c2b068fc378daa952ba7f163c4a11628f55a4df523b3ef60405160405180910390a46111368383836001611755565b505050565b60006002600083815260200190815260200160002060009054906101000a900473ffffffffffffffffffffffffffffffffffffffff169050919050565b8173ffffffffffffffffffffffffffffffffffffffff168373ffffffffffffffffffffffffffffffffffffffff16036111e6576040517f08c379a00000000000000000000000000000000000000000000000000000000081526004016111dd90612a5a565b60405180910390fd5b80600560008573ffffffffffffffffffffffffffffffffffffffff1673ffffffffffffffffffffffffffffffffffffffff16815260200190815260200160002060008473ffffffffffffffffffffffffffffffffffffffff1673ffffffffffffffffffffffffffffffffffffffff16815260200190815260200160002060006101000a81548160ff0219169083151502179055508173ffffffffffffffffffffffffffffffffffffffff168373ffffffffffffffffffffffffffffffffffffffff167f17307eab39ab6107e8899845ad3d59bd9653f200f220920489ca2b5937696c31836040516112d79190611bda565b60405180910390a3505050565b6112ef848484610e42565b6112fb8484848461175b565b61133a576040517f08c379a000000000000000000000000000000000000000000000000000000000815260040161133190612aec565b60405180910390fd5b50505050565b606060405180602001604052806000815250905090565b606061136282610ca1565b600061136c611340565b9050600081511161138c57604051806020016040528060008152506113b7565b80611396846118e2565b6040516020016113a7929190612648565b6040516020818303038152906040525b915050919050565b600081600001549050919050565b600073ffffffffffffffffffffffffffffffffffffffff168273ffffffffffffffffffffffffffffffffffffffff160361143c576040517f08c379a000000000000000000000000000000000000000000000000000000000815260040161143390612b58565b60405180910390fd5b6114458161170e565b15611485576040517f08c379a000000000000000000000000000000000000000000000000000000000815260040161147c90612bc4565b60405180910390fd5b61149360008383600161174f565b61149c8161170e565b156114dc576040517f08c379a00000000000000000000000000000000000000000000000000000000081526004016114d390612bc4565b60405180910390fd5b6001600360008473ffffffffffffffffffffffffffffffffffffffff1673ffffffffffffffffffffffffffffffffffffffff16815260200190815260200160002060008282540192505081905550816002600083815260200190815260200160002060006101000a81548173ffffffffffffffffffffffffffffffffffffffff021916908373ffffffffffffffffffffffffffffffffffffffff160217905550808273ffffffffffffffffffffffffffffffffffffffff16600073ffffffffffffffffffffffffffffffffffffffff167fddf252ad1be2c89b69c2b068fc378daa952ba7f163c4a11628f55a4df523b3ef60405160405180910390a46115e6600083836001611755565b5050565b6115f38261170e565b611632576040517f08c379a000000000000000000000000000000000000000000000000000000000815260040161162990612c56565b60405180910390fd5b806006600084815260200190815260200160002090816116529190612818565b507ff8e1a15aba9398e019f0b49df1a4fde98ee17ae345cb5f6b5e2c27f5033e8ce7826040516116829190611f8f565b60405180910390a15050565b6001816000016000828254019250508190555050565b60007f01ffc9a7000000000000000000000000000000000000000000000000000000007bffffffffffffffffffffffffffffffffffffffffffffffffffffffff1916827bffffffffffffffffffffffffffffffffffffffffffffffffffffffff1916149050919050565b60008073ffffffffffffffffffffffffffffffffffffffff166117308361113b565b73ffffffffffffffffffffffffffffffffffffffff1614159050919050565b50505050565b50505050565b600061177c8473ffffffffffffffffffffffffffffffffffffffff166119b0565b156118d5578373ffffffffffffffffffffffffffffffffffffffff1663150b7a026117a5610cec565b8786866040518563ffffffff1660e01b81526004016117c79493929190612ccb565b6020604051808303816000875af192505050801561180357506040513d601f19601f820116820180604052508101906118009190612d2c565b60015b611885573d8060008114611833576040519150601f19603f3d011682016040523d82523d6000602084013e611838565b606091505b50600081510361187d576040517f08c379a000000000000000000000000000000000000000000000000000000000815260040161187490612aec565b60405180910390fd5b805181602001fd5b63150b7a0260e01b7bffffffffffffffffffffffffffffffffffffffffffffffffffffffff1916817bffffffffffffffffffffffffffffffffffffffffffffffffffffffff1916149150506118da565b600190505b949350505050565b6060600060016118f1846119d3565b01905060008167ffffffffffffffff8111156119105761190f612020565b5b6040519080825280601f01601f1916602001820160405280156119425781602001600182028036833780820191505090505b509050600082602001820190505b6001156119a5578080600190039150507f3031323334353637383961626364656600000000000000000000000000000000600a86061a8153600a858161199957611998612d59565b5b04945060008503611950575b819350505050919050565b6000808273ffffffffffffffffffffffffffffffffffffffff163b119050919050565b600080600090507a184f03e93ff9f4daa797ed6e38ed64bf6a1f0100000000000000008310611a31577a184f03e93ff9f4daa797ed6e38ed64bf6a1f0100000000000000008381611a2757611a26612d59565b5b0492506040810190505b6d04ee2d6d415b85acef81000000008310611a6e576d04ee2d6d415b85acef81000000008381611a6457611a63612d59565b5b0492506020810190505b662386f26fc100008310611a9d57662386f26fc100008381611a9357611a92612d59565b5b0492506010810190505b6305f5e1008310611ac6576305f5e1008381611abc57611abb612d59565b5b0492506008810190505b6127108310611aeb576127108381611ae157611ae0612d59565b5b0492506004810190505b60648310611b0e5760648381611b0457611b03612d59565b5b0492506002810190505b600a8310611b1d576001810190505b80915050919050565b6000604051905090565b600080fd5b600080fd5b60007fffffffff0000000000000000000000000000000000000000000000000000000082169050919050565b611b6f81611b3a565b8114611b7a57600080fd5b50565b600081359050611b8c81611b66565b92915050565b600060208284031215611ba857611ba7611b30565b5b6000611bb684828501611b7d565b91505092915050565b60008115159050919050565b611bd481611bbf565b82525050565b6000602082019050611bef6000830184611bcb565b92915050565b600081519050919050565b600082825260208201905092915050565b60005b83811015611c2f578082015181840152602081019050611c14565b60008484015250505050565b6000601f19601f8301169050919050565b6000611c5782611bf5565b611c618185611c00565b9350611c71818560208601611c11565b611c7a81611c3b565b840191505092915050565b60006020820190508181036000830152611c9f8184611c4c565b905092915050565b6000819050919050565b611cba81611ca7565b8114611cc557600080fd5b50565b600081359050611cd781611cb1565b92915050565b600060208284031215611cf357611cf2611b30565b5b6000611d0184828501611cc8565b91505092915050565b600073ffffffffffffffffffffffffffffffffffffffff82169050919050565b6000611d3582611d0a565b9050919050565b611d4581611d2a565b82525050565b6000602082019050611d606000830184611d3c565b92915050565b611d6f81611d2a565b8114611d7a57600080fd5b50565b600081359050611d8c81611d66565b92915050565b60008060408385031215611da957611da8611b30565b5b6000611db785828601611d7d565b9250506020611dc885828601611cc8565b9150509250929050565b600080600060608486031215611deb57611dea611b30565b5b6000611df986828701611d7d565b9350506020611e0a86828701611d7d565b9250506040611e1b86828701611cc8565b9150509250925092565b600060208284031215611e3b57611e3a611b30565b5b6000611e4984828501611d7d565b91505092915050565b600081519050919050565b600082825260208201905092915050565b6000819050602082019050919050565b600082825260208201905092915050565b6000611e9a82611bf5565b611ea48185611e7e565b9350611eb4818560208601611c11565b611ebd81611c3b565b840191505092915050565b6000611ed48383611e8f565b905092915050565b6000602082019050919050565b6000611ef482611e52565b611efe8185611e5d565b935083602082028501611f1085611e6e565b8060005b85811015611f4c5784840389528151611f2d8582611ec8565b9450611f3883611edc565b925060208a01995050600181019050611f14565b50829750879550505050505092915050565b60006020820190508181036000830152611f788184611ee9565b905092915050565b611f8981611ca7565b82525050565b6000602082019050611fa46000830184611f80565b92915050565b611fb381611bbf565b8114611fbe57600080fd5b50565b600081359050611fd081611faa565b92915050565b60008060408385031215611fed57611fec611b30565b5b6000611ffb85828601611d7d565b925050602061200c85828601611fc1565b9150509250929050565b600080fd5b600080fd5b7f4e487b7100000000000000000000000000000000000000000000000000000000600052604160045260246000fd5b61205882611c3b565b810181811067ffffffffffffffff8211171561207757612076612020565b5b80604052505050565b600061208a611b26565b9050612096828261204f565b919050565b600067ffffffffffffffff8211156120b6576120b5612020565b5b6120bf82611c3b565b9050602081019050919050565b82818337600083830152505050565b60006120ee6120e98461209b565b612080565b90508281526020810184848401111561210a5761210961201b565b5b6121158482856120cc565b509392505050565b600082601f83011261213257612131612016565b5b81356121428482602086016120db565b91505092915050565b6000806000806080858703121561216557612164611b30565b5b600061217387828801611d7d565b945050602061218487828801611d7d565b935050604061219587828801611cc8565b925050606085013567ffffffffffffffff8111156121b6576121b5611b35565b5b6121c28782880161211d565b91505092959194509250565b600067ffffffffffffffff8211156121e9576121e8612020565b5b6121f282611c3b565b9050602081019050919050565b600061221261220d846121ce565b612080565b90508281526020810184848401111561222e5761222d61201b565b5b6122398482856120cc565b509392505050565b600082601f83011261225657612255612016565b5b81356122668482602086016121ff565b91505092915050565b60006020828403121561228557612284611b30565b5b600082013567ffffffffffffffff8111156122a3576122a2611b35565b5b6122af84828501612241565b91505092915050565b600080604083850312156122cf576122ce611b30565b5b60006122dd85828601611d7d565b92505060206122ee85828601611d7d565b9150509250929050565b7f4e487b7100000000000000000000000000000000000000000000000000000000600052602260045260246000fd5b6000600282049050600182168061233f57607f821691505b602082108103612352576123516122f8565b5b50919050565b7f4552433732313a20617070726f76616c20746f2063757272656e74206f776e6560008201527f7200000000000000000000000000000000000000000000000000000000000000602082015250565b60006123b4602183611c00565b91506123bf82612358565b604082019050919050565b600060208201905081810360008301526123e3816123a7565b9050919050565b7f4552433732313a20617070726f76652063616c6c6572206973206e6f7420746f60008201527f6b656e206f776e6572206f7220617070726f76656420666f7220616c6c000000602082015250565b6000612446603d83611c00565b9150612451826123ea565b604082019050919050565b6000602082019050818103600083015261247581612439565b9050919050565b7f4552433732313a2063616c6c6572206973206e6f7420746f6b656e206f776e6560008201527f72206f7220617070726f76656400000000000000000000000000000000000000602082015250565b60006124d8602d83611c00565b91506124e38261247c565b604082019050919050565b60006020820190508181036000830152612507816124cb565b9050919050565b7f4552433732313a20696e76616c696420746f6b656e2049440000000000000000600082015250565b6000612544601883611c00565b915061254f8261250e565b602082019050919050565b6000602082019050818103600083015261257381612537565b9050919050565b7f4552433732313a2061646472657373207a65726f206973206e6f74206120766160008201527f6c6964206f776e65720000000000000000000000000000000000000000000000602082015250565b60006125d6602983611c00565b91506125e18261257a565b604082019050919050565b60006020820190508181036000830152612605816125c9565b9050919050565b600081905092915050565b600061262282611bf5565b61262c818561260c565b935061263c818560208601611c11565b80840191505092915050565b60006126548285612617565b91506126608284612617565b91508190509392505050565b60008190508160005260206000209050919050565b60006020601f8301049050919050565b600082821b905092915050565b6000600883026126ce7fffffffffffffffffffffffffffffffffffffffffffffffffffffffffffffffff82612691565b6126d88683612691565b95508019841693508086168417925050509392505050565b6000819050919050565b600061271561271061270b84611ca7565b6126f0565b611ca7565b9050919050565b6000819050919050565b61272f836126fa565b61274361273b8261271c565b84845461269e565b825550505050565b600090565b61275861274b565b612763818484612726565b505050565b5b818110156127875761277c600082612750565b600181019050612769565b5050565b601f8211156127cc5761279d8161266c565b6127a684612681565b810160208510156127b5578190505b6127c96127c185612681565b830182612768565b50505b505050565b600082821c905092915050565b60006127ef600019846008026127d1565b1980831691505092915050565b600061280883836127de565b9150826002028217905092915050565b61282182611bf5565b67ffffffffffffffff81111561283a57612839612020565b5b6128448254612327565b61284f82828561278b565b600060209050601f8311600181146128825760008415612870578287015190505b61287a85826127fc565b8655506128e2565b601f1984166128908661266c565b60005b828110156128b857848901518255600182019150602085019450602081019050612893565b868310156128d557848901516128d1601f8916826127de565b8355505b6001600288020188555050505b505050505050565b7f4552433732313a207472616e736665722066726f6d20696e636f72726563742060008201527f6f776e6572000000000000000000000000000000000000000000000000000000602082015250565b6000612946602583611c00565b9150612951826128ea565b604082019050919050565b6000602082019050818103600083015261297581612939565b9050919050565b7f4552433732313a207472616e7366657220746f20746865207a65726f2061646460008201527f7265737300000000000000000000000000000000000000000000000000000000602082015250565b60006129d8602483611c00565b91506129e38261297c565b604082019050919050565b60006020820190508181036000830152612a07816129cb565b9050919050565b7f4552433732313a20617070726f766520746f2063616c6c657200000000000000600082015250565b6000612a44601983611c00565b9150612a4f82612a0e565b602082019050919050565b60006020820190508181036000830152612a7381612a37565b9050919050565b7f4552433732313a207472616e7366657220746f206e6f6e20455243373231526560008201527f63656976657220696d706c656d656e7465720000000000000000000000000000602082015250565b6000612ad6603283611c00565b9150612ae182612a7a565b604082019050919050565b60006020820190508181036000830152612b0581612ac9565b9050919050565b7f4552433732313a206d696e7420746f20746865207a65726f2061646472657373600082015250565b6000612b42602083611c00565b9150612b4d82612b0c565b602082019050919050565b60006020820190508181036000830152612b7181612b35565b9050919050565b7f4552433732313a20746f6b656e20616c7265616479206d696e74656400000000600082015250565b6000612bae601c83611c00565b9150612bb982612b78565b602082019050919050565b60006020820190508181036000830152612bdd81612ba1565b9050919050565b7f45524337323155524953746f726167653a2055524920736574206f66206e6f6e60008201527f6578697374656e7420746f6b656e000000000000000000000000000000000000602082015250565b6000612c40602e83611c00565b9150612c4b82612be4565b604082019050919050565b60006020820190508181036000830152612c6f81612c33565b9050919050565b600081519050919050565b600082825260208201905092915050565b6000612c9d82612c76565b612ca78185612c81565b9350612cb7818560208601611c11565b612cc081611c3b565b840191505092915050565b6000608082019050612ce06000830187611d3c565b612ced6020830186611d3c565b612cfa6040830185611f80565b8181036060830152612d0c8184612c92565b905095945050505050565b600081519050612d2681611b66565b92915050565b600060208284031215612d4257612d41611b30565b5b6000612d5084828501612d17565b91505092915050565b7f4e487b7100000000000000000000000000000000000000000000000000000000600052601260045260246000fdfea26469706673582212206c18584f3f6013fa96678dd70e820ac079abac66c7f2ee8ecd8514789bfc197664736f6c63430008120033",
  "linkReferences": {},
  "deployedLinkReferences": {}
}