{
  "_format": "hh-sol-artifact-1",
  "contractName": "NFTMarket",
  "sourceName": "contracts/NFTMarket.sol",
  "abi": [
    {
      "inputs": [],
      "stateMutability": "nonpayable",
      "type": "constructor"
    },
    {
      "anonymous": false,
      "inputs": [
        {
          "indexed": true,
          "internalType": "address",
          "name": "owner",
          "type": "address"
        },
        {
          "indexed": true,
          "internalType": "address",
          "name": "approved",
          "type": "address"
        },
        {
          "indexed": true,
          "internalType": "uint256",
          "name": "tokenId",
          "type": "uint256"
        }
      ],
      "name": "Approval",
      "type": "event"
    },
    {
      "anonymous": false,
      "inputs": [
        {
          "indexed": true,
          "internalType": "address",
          "name": "owner",
          "type": "address"
        },
        {
          "indexed": true,
          "internalType": "address",
          "name": "operator",
          "type": "address"
        },
        {
          "indexed": false,
          "internalType": "bool",
          "name": "approved",
          "type": "bool"
        }
      ],
      "name": "ApprovalForAll",
      "type": "event"
    },
    {
      "anonymous": false,
      "inputs": [
        {
          "indexed": false,
          "internalType": "uint256",
          "name": "_fromTokenId",
          "type": "uint256"
        },
        {
          "indexed": false,
          "internalType": "uint256",
          "name": "_toTokenId",
          "type": "uint256"
        }
      ],
      "name": "BatchMetadataUpdate",
      "type": "event"
    },
    {
      "anonymous": false,
      "inputs": [
        {
          "indexed": false,
          "internalType": "uint256",
          "name": "_tokenId",
          "type": "uint256"
        }
      ],
      "name": "MetadataUpdate",
      "type": "event"
    },
    {
      "anonymous": false,
      "inputs": [
        {
          "indexed": true,
          "internalType": "address",
          "name": "from",
          "type": "address"
        },
        {
          "indexed": true,
          "internalType": "address",
          "name": "to",
          "type": "address"
        },
        {
          "indexed": true,
          "internalType": "uint256",
          "name": "tokenId",
          "type": "uint256"
        }
      ],
      "name": "Transfer",
      "type": "event"
    },
    {
      "inputs": [
        {
          "internalType": "address",
          "name": "to",
          "type": "address"
        },
        {
          "internalType": "uint256",
          "name": "tokenId",
          "type": "uint256"
        }
      ],
      "name": "approve",
      "outputs": [],
      "stateMutability": "nonpayable",
      "type": "function"
    },
    {
      "inputs": [
        {
          "internalType": "address",
          "name": "owner",
          "type": "address"
        }
      ],
      "name": "balanceOf",
      "outputs": [
        {
          "internalType": "uint256",
          "name": "",
          "type": "uint256"
        }
      ],
      "stateMutability": "view",
      "type": "function"
    },
    {
      "inputs": [
        {
          "internalType": "uint256",
          "name": "tokenId",
          "type": "uint256"
        }
      ],
      "name": "getApproved",
      "outputs": [
        {
          "internalType": "address",
          "name": "",
          "type": "address"
        }
      ],
      "stateMutability": "view",
      "type": "function"
    },
    {
      "inputs": [
        {
          "internalType": "address",
          "name": "_userAddress",
          "type": "address"
        }
      ],
      "name": "getTokenURI",
      "outputs": [
        {
          "internalType": "string",
          "name": "",
          "type": "string"
        }
      ],
      "stateMutability": "view",
      "type": "function"
    },
    {
      "inputs": [
        {
          "internalType": "address",
          "name": "owner",
          "type": "address"
        },
        {
          "internalType": "address",
          "name": "operator",
          "type": "address"
        }
      ],
      "name": "isApprovedForAll",
      "outputs": [
        {
          "internalType": "bool",
          "name": "",
          "type": "bool"
        }
      ],
      "stateMutability": "view",
      "type": "function"
    },
    {
      "inputs": [
        {
          "internalType": "string",
          "name": "tokenURI",
          "type": "string"
        }
      ],
      "name": "mint",
      "outputs": [
        {
          "internalType": "uint256",
          "name": "",
          "type": "uint256"
        }
      ],
      "stateMutability": "nonpayable",
      "type": "function"
    },
    {
      "inputs": [],
      "name": "name",
      "outputs": [
        {
          "internalType": "string",
          "name": "",
          "type": "string"
        }
      ],
      "stateMutability": "view",
      "type": "function"
    },
    {
      "inputs": [
        {
          "internalType": "uint256",
          "name": "tokenId",
          "type": "uint256"
        }
      ],
      "name": "ownerOf",
      "outputs": [
        {
          "internalType": "address",
          "name": "",
          "type": "address"
        }
      ],
      "stateMutability": "view",
      "type": "function"
    },
    {
      "inputs": [
        {
          "internalType": "address",
          "name": "from",
          "type": "address"
        },
        {
          "internalType": "address",
          "name": "to",
          "type": "address"
        },
        {
          "internalType": "uint256",
          "name": "tokenId",
          "type": "uint256"
        }
      ],
      "name": "safeTransferFrom",
      "outputs": [],
      "stateMutability": "nonpayable",
      "type": "function"
    },
    {
      "inputs": [
        {
          "internalType": "address",
          "name": "from",
          "type": "address"
        },
        {
          "internalType": "address",
          "name": "to",
          "type": "address"
        },
        {
          "internalType": "uint256",
          "name": "tokenId",
          "type": "uint256"
        },
        {
          "internalType": "bytes",
          "name": "data",
          "type": "bytes"
        }
      ],
      "name": "safeTransferFrom",
      "outputs": [],
      "stateMutability": "nonpayable",
      "type": "function"
    },
    {
      "inputs": [
        {
          "internalType": "address",
          "name": "operator",
          "type": "address"
        },
        {
          "internalType": "bool",
          "name": "approved",
          "type": "bool"
        }
      ],
      "name": "setApprovalForAll",
      "outputs": [],
      "stateMutability": "nonpayable",
      "type": "function"
    },
    {
      "inputs": [
        {
          "internalType": "bytes4",
          "name": "interfaceId",
          "type": "bytes4"
        }
      ],
      "name": "supportsInterface",
      "outputs": [
        {
          "internalType": "bool",
          "name": "",
          "type": "bool"
        }
      ],
      "stateMutability": "view",
      "type": "function"
    },
    {
      "inputs": [],
      "name": "symbol",
      "outputs": [
        {
          "internalType": "string",
          "name": "",
          "type": "string"
        }
      ],
      "stateMutability": "view",
      "type": "function"
    },
    {
      "inputs": [
        {
          "internalType": "uint256",
          "name": "tokenId",
          "type": "uint256"
        }
      ],
      "name": "tokenURI",
      "outputs": [
        {
          "internalType": "string",
          "name": "",
          "type": "string"
        }
      ],
      "stateMutability": "view",
      "type": "function"
    },
    {
      "inputs": [
        {
          "internalType": "address",
          "name": "from",
          "type": "address"
        },
        {
          "internalType": "address",
          "name": "to",
          "type": "address"
        },
        {
          "internalType": "uint256",
          "name": "tokenId",
          "type": "uint256"
        }
      ],
      "name": "transferFrom",
      "outputs": [],
      "stateMutability": "nonpayable",
      "type": "function"
    }
  ],
  "bytecode": "0x60806040523480156200001157600080fd5b506040518060400160405280600a81526020017f4e46542e4d61726b6574000000000000000000000000000000000000000000008152506040518060400160405280600481526020017f4e46544d0000000000000000000000000000000000000000000000000000000081525081600090816200008f919062000324565b508060019081620000a1919062000324565b5050506200040b565b600081519050919050565b7f4e487b7100000000000000000000000000000000000000000000000000000000600052604160045260246000fd5b7f4e487b7100000000000000000000000000000000000000000000000000000000600052602260045260246000fd5b600060028204905060018216806200012c57607f821691505b602082108103620001425762000141620000e4565b5b50919050565b60008190508160005260206000209050919050565b60006020601f8301049050919050565b600082821b905092915050565b600060088302620001ac7fffffffffffffffffffffffffffffffffffffffffffffffffffffffffffffffff826200016d565b620001b886836200016d565b95508019841693508086168417925050509392505050565b6000819050919050565b6000819050919050565b600062000205620001ff620001f984620001d0565b620001da565b620001d0565b9050919050565b6000819050919050565b6200022183620001e4565b6200023962000230826200020c565b8484546200017a565b825550505050565b600090565b6200025062000241565b6200025d81848462000216565b505050565b5b8181101562000285576200027960008262000246565b60018101905062000263565b5050565b601f821115620002d4576200029e8162000148565b620002a9846200015d565b81016020851015620002b9578190505b620002d1620002c8856200015d565b83018262000262565b50505b505050565b600082821c905092915050565b6000620002f960001984600802620002d9565b1980831691505092915050565b6000620003148383620002e6565b9150826002028217905092915050565b6200032f82620000aa565b67ffffffffffffffff8111156200034b576200034a620000b5565b5b62000357825462000113565b6200036482828562000289565b600060209050601f8311600181146200039c576000841562000387578287015190505b62000393858262000306565b86555062000403565b601f198416620003ac8662000148565b60005b82811015620003d657848901518255600182019150602085019450602081019050620003af565b86831015620003f65784890151620003f2601f891682620002e6565b8355505b6001600288020188555050505b505050505050565b612c24806200041b6000396000f3fe608060405234801561001057600080fd5b50600436106100f55760003560e01c80636352211e11610097578063b88d4fde11610066578063b88d4fde14610296578063c87b56dd146102b2578063d85d3d27146102e2578063e985e9c514610312576100f5565b80636352211e146101fc57806370a082311461022c57806395d89b411461025c578063a22cb4651461027a576100f5565b8063095ea7b3116100d3578063095ea7b31461017857806323b872dd1461019457806342842e0e146101b057806361c028e7146101cc576100f5565b806301ffc9a7146100fa57806306fdde031461012a578063081812fc14610148575b600080fd5b610114600480360381019061010f9190611b26565b610342565b6040516101219190611b6e565b60405180910390f35b6101326103a3565b60405161013f9190611c19565b60405180910390f35b610162600480360381019061015d9190611c71565b610435565b60405161016f9190611cdf565b60405180910390f35b610192600480360381019061018d9190611d26565b61047b565b005b6101ae60048036038101906101a99190611d66565b610592565b005b6101ca60048036038101906101c59190611d66565b6105f2565b005b6101e660048036038101906101e19190611db9565b610612565b6040516101f39190611c19565b60405180910390f35b61021660048036038101906102119190611c71565b6106e3565b6040516102239190611cdf565b60405180910390f35b61024660048036038101906102419190611db9565b610769565b6040516102539190611df5565b60405180910390f35b610264610820565b6040516102719190611c19565b60405180910390f35b610294600480360381019061028f9190611e3c565b6108b2565b005b6102b060048036038101906102ab9190611fb1565b6108c8565b005b6102cc60048036038101906102c79190611c71565b61092a565b6040516102d99190611c19565b60405180910390f35b6102fc60048036038101906102f791906120d5565b610a3c565b6040516103099190611df5565b60405180910390f35b61032c6004803603810190610327919061211e565b610abf565b6040516103399190611b6e565b60405180910390f35b6000634906490660e01b7bffffffffffffffffffffffffffffffffffffffffffffffffffffffff1916827bffffffffffffffffffffffffffffffffffffffffffffffffffffffff1916148061039c575061039b82610b53565b5b9050919050565b6060600080546103b29061218d565b80601f01602080910402602001604051908101604052809291908181526020018280546103de9061218d565b801561042b5780601f106104005761010080835404028352916020019161042b565b820191906000526020600020905b81548152906001019060200180831161040e57829003601f168201915b5050505050905090565b600061044082610c35565b6004600083815260200190815260200160002060009054906101000a900473ffffffffffffffffffffffffffffffffffffffff169050919050565b6000610486826106e3565b90508073ffffffffffffffffffffffffffffffffffffffff168373ffffffffffffffffffffffffffffffffffffffff16036104f6576040517f08c379a00000000000000000000000000000000000000000000000000000000081526004016104ed90612230565b60405180910390fd5b8073ffffffffffffffffffffffffffffffffffffffff16610515610c80565b73ffffffffffffffffffffffffffffffffffffffff16148061054457506105438161053e610c80565b610abf565b5b610583576040517f08c379a000000000000000000000000000000000000000000000000000000000815260040161057a906122c2565b60405180910390fd5b61058d8383610c88565b505050565b6105a361059d610c80565b82610d41565b6105e2576040517f08c379a00000000000000000000000000000000000000000000000000000000081526004016105d990612354565b60405180910390fd5b6105ed838383610dd6565b505050565b61060d838383604051806020016040528060008152506108c8565b505050565b6060600860008373ffffffffffffffffffffffffffffffffffffffff1673ffffffffffffffffffffffffffffffffffffffff168152602001908152602001600020805461065e9061218d565b80601f016020809104026020016040519081016040528092919081815260200182805461068a9061218d565b80156106d75780601f106106ac576101008083540402835291602001916106d7565b820191906000526020600020905b8154815290600101906020018083116106ba57829003601f168201915b50505050509050919050565b6000806106ef836110cf565b9050600073ffffffffffffffffffffffffffffffffffffffff168173ffffffffffffffffffffffffffffffffffffffff1603610760576040517f08c379a0000000000000000000000000000000000000000000000000000000008152600401610757906123c0565b60405180910390fd5b80915050919050565b60008073ffffffffffffffffffffffffffffffffffffffff168273ffffffffffffffffffffffffffffffffffffffff16036107d9576040517f08c379a00000000000000000000000000000000000000000000000000000000081526004016107d090612452565b60405180910390fd5b600360008373ffffffffffffffffffffffffffffffffffffffff1673ffffffffffffffffffffffffffffffffffffffff168152602001908152602001600020549050919050565b60606001805461082f9061218d565b80601f016020809104026020016040519081016040528092919081815260200182805461085b9061218d565b80156108a85780601f1061087d576101008083540402835291602001916108a8565b820191906000526020600020905b81548152906001019060200180831161088b57829003601f168201915b5050505050905090565b6108c46108bd610c80565b838361110c565b5050565b6108d96108d3610c80565b83610d41565b610918576040517f08c379a000000000000000000000000000000000000000000000000000000000815260040161090f90612354565b60405180910390fd5b61092484848484611278565b50505050565b606061093582610c35565b60006006600084815260200190815260200160002080546109559061218d565b80601f01602080910402602001604051908101604052809291908181526020018280546109819061218d565b80156109ce5780601f106109a3576101008083540402835291602001916109ce565b820191906000526020600020905b8154815290600101906020018083116109b157829003601f168201915b5050505050905060006109df6112d4565b905060008151036109f4578192505050610a37565b600082511115610a29578082604051602001610a119291906124ae565b60405160208183030381529060405292505050610a37565b610a32846112eb565b925050505b919050565b600080610a496007611353565b9050610a553382611361565b610a5f818461157e565b82600860003373ffffffffffffffffffffffffffffffffffffffff1673ffffffffffffffffffffffffffffffffffffffff1681526020019081526020016000209081610aab919061267e565b50610ab66007611622565b80915050919050565b6000600560008473ffffffffffffffffffffffffffffffffffffffff1673ffffffffffffffffffffffffffffffffffffffff16815260200190815260200160002060008373ffffffffffffffffffffffffffffffffffffffff1673ffffffffffffffffffffffffffffffffffffffff16815260200190815260200160002060009054906101000a900460ff16905092915050565b60007f80ac58cd000000000000000000000000000000000000000000000000000000007bffffffffffffffffffffffffffffffffffffffffffffffffffffffff1916827bffffffffffffffffffffffffffffffffffffffffffffffffffffffff19161480610c1e57507f5b5e139f000000000000000000000000000000000000000000000000000000007bffffffffffffffffffffffffffffffffffffffffffffffffffffffff1916827bffffffffffffffffffffffffffffffffffffffffffffffffffffffff1916145b80610c2e5750610c2d82611638565b5b9050919050565b610c3e816116a2565b610c7d576040517f08c379a0000000000000000000000000000000000000000000000000000000008152600401610c74906123c0565b60405180910390fd5b50565b600033905090565b816004600083815260200190815260200160002060006101000a81548173ffffffffffffffffffffffffffffffffffffffff021916908373ffffffffffffffffffffffffffffffffffffffff160217905550808273ffffffffffffffffffffffffffffffffffffffff16610cfb836106e3565b73ffffffffffffffffffffffffffffffffffffffff167f8c5be1e5ebec7d5bd14f71427d1e84f3dd0314c0f7b2291e5b200ac8c7c3b92560405160405180910390a45050565b600080610d4d836106e3565b90508073ffffffffffffffffffffffffffffffffffffffff168473ffffffffffffffffffffffffffffffffffffffff161480610d8f5750610d8e8185610abf565b5b80610dcd57508373ffffffffffffffffffffffffffffffffffffffff16610db584610435565b73ffffffffffffffffffffffffffffffffffffffff16145b91505092915050565b8273ffffffffffffffffffffffffffffffffffffffff16610df6826106e3565b73ffffffffffffffffffffffffffffffffffffffff1614610e4c576040517f08c379a0000000000000000000000000000000000000000000000000000000008152600401610e43906127c2565b60405180910390fd5b600073ffffffffffffffffffffffffffffffffffffffff168273ffffffffffffffffffffffffffffffffffffffff1603610ebb576040517f08c379a0000000000000000000000000000000000000000000000000000000008152600401610eb290612854565b60405180910390fd5b610ec883838360016116e3565b8273ffffffffffffffffffffffffffffffffffffffff16610ee8826106e3565b73ffffffffffffffffffffffffffffffffffffffff1614610f3e576040517f08c379a0000000000000000000000000000000000000000000000000000000008152600401610f35906127c2565b60405180910390fd5b6004600082815260200190815260200160002060006101000a81549073ffffffffffffffffffffffffffffffffffffffff02191690556001600360008573ffffffffffffffffffffffffffffffffffffffff1673ffffffffffffffffffffffffffffffffffffffff168152602001908152602001600020600082825403925050819055506001600360008473ffffffffffffffffffffffffffffffffffffffff1673ffffffffffffffffffffffffffffffffffffffff16815260200190815260200160002060008282540192505081905550816002600083815260200190815260200160002060006101000a81548173ffffffffffffffffffffffffffffffffffffffff021916908373ffffffffffffffffffffffffffffffffffffffff160217905550808273ffffffffffffffffffffffffffffffffffffffff168473ffffffffffffffffffffffffffffffffffffffff167fddf252ad1be2c89b69c2b068fc378daa952ba7f163c4a11628f55a4df523b3ef60405160405180910390a46110ca83838360016116e9565b505050565b60006002600083815260200190815260200160002060009054906101000a900473ffffffffffffffffffffffffffffffffffffffff169050919050565b8173ffffffffffffffffffffffffffffffffffffffff168373ffffffffffffffffffffffffffffffffffffffff160361117a576040517f08c379a0000000000000000000000000000000000000000000000000000000008152600401611171906128c0565b60405180910390fd5b80600560008573ffffffffffffffffffffffffffffffffffffffff1673ffffffffffffffffffffffffffffffffffffffff16815260200190815260200160002060008473ffffffffffffffffffffffffffffffffffffffff1673ffffffffffffffffffffffffffffffffffffffff16815260200190815260200160002060006101000a81548160ff0219169083151502179055508173ffffffffffffffffffffffffffffffffffffffff168373ffffffffffffffffffffffffffffffffffffffff167f17307eab39ab6107e8899845ad3d59bd9653f200f220920489ca2b5937696c318360405161126b9190611b6e565b60405180910390a3505050565b611283848484610dd6565b61128f848484846116ef565b6112ce576040517f08c379a00000000000000000000000000000000000000000000000000000000081526004016112c590612952565b60405180910390fd5b50505050565b606060405180602001604052806000815250905090565b60606112f682610c35565b60006113006112d4565b90506000815111611320576040518060200160405280600081525061134b565b8061132a84611876565b60405160200161133b9291906124ae565b6040516020818303038152906040525b915050919050565b600081600001549050919050565b600073ffffffffffffffffffffffffffffffffffffffff168273ffffffffffffffffffffffffffffffffffffffff16036113d0576040517f08c379a00000000000000000000000000000000000000000000000000000000081526004016113c7906129be565b60405180910390fd5b6113d9816116a2565b15611419576040517f08c379a000000000000000000000000000000000000000000000000000000000815260040161141090612a2a565b60405180910390fd5b6114276000838360016116e3565b611430816116a2565b15611470576040517f08c379a000000000000000000000000000000000000000000000000000000000815260040161146790612a2a565b60405180910390fd5b6001600360008473ffffffffffffffffffffffffffffffffffffffff1673ffffffffffffffffffffffffffffffffffffffff16815260200190815260200160002060008282540192505081905550816002600083815260200190815260200160002060006101000a81548173ffffffffffffffffffffffffffffffffffffffff021916908373ffffffffffffffffffffffffffffffffffffffff160217905550808273ffffffffffffffffffffffffffffffffffffffff16600073ffffffffffffffffffffffffffffffffffffffff167fddf252ad1be2c89b69c2b068fc378daa952ba7f163c4a11628f55a4df523b3ef60405160405180910390a461157a6000838360016116e9565b5050565b611587826116a2565b6115c6576040517f08c379a00000000000000000000000000000000000000000000000000000000081526004016115bd90612abc565b60405180910390fd5b806006600084815260200190815260200160002090816115e6919061267e565b507ff8e1a15aba9398e019f0b49df1a4fde98ee17ae345cb5f6b5e2c27f5033e8ce7826040516116169190611df5565b60405180910390a15050565b6001816000016000828254019250508190555050565b60007f01ffc9a7000000000000000000000000000000000000000000000000000000007bffffffffffffffffffffffffffffffffffffffffffffffffffffffff1916827bffffffffffffffffffffffffffffffffffffffffffffffffffffffff1916149050919050565b60008073ffffffffffffffffffffffffffffffffffffffff166116c4836110cf565b73ffffffffffffffffffffffffffffffffffffffff1614159050919050565b50505050565b50505050565b60006117108473ffffffffffffffffffffffffffffffffffffffff16611944565b15611869578373ffffffffffffffffffffffffffffffffffffffff1663150b7a02611739610c80565b8786866040518563ffffffff1660e01b815260040161175b9493929190612b31565b6020604051808303816000875af192505050801561179757506040513d601f19601f820116820180604052508101906117949190612b92565b60015b611819573d80600081146117c7576040519150601f19603f3d011682016040523d82523d6000602084013e6117cc565b606091505b506000815103611811576040517f08c379a000000000000000000000000000000000000000000000000000000000815260040161180890612952565b60405180910390fd5b805181602001fd5b63150b7a0260e01b7bffffffffffffffffffffffffffffffffffffffffffffffffffffffff1916817bffffffffffffffffffffffffffffffffffffffffffffffffffffffff19161491505061186e565b600190505b949350505050565b60606000600161188584611967565b01905060008167ffffffffffffffff8111156118a4576118a3611e86565b5b6040519080825280601f01601f1916602001820160405280156118d65781602001600182028036833780820191505090505b509050600082602001820190505b600115611939578080600190039150507f3031323334353637383961626364656600000000000000000000000000000000600a86061a8153600a858161192d5761192c612bbf565b5b049450600085036118e4575b819350505050919050565b6000808273ffffffffffffffffffffffffffffffffffffffff163b119050919050565b600080600090507a184f03e93ff9f4daa797ed6e38ed64bf6a1f01000000000000000083106119c5577a184f03e93ff9f4daa797ed6e38ed64bf6a1f01000000000000000083816119bb576119ba612bbf565b5b0492506040810190505b6d04ee2d6d415b85acef81000000008310611a02576d04ee2d6d415b85acef810000000083816119f8576119f7612bbf565b5b0492506020810190505b662386f26fc100008310611a3157662386f26fc100008381611a2757611a26612bbf565b5b0492506010810190505b6305f5e1008310611a5a576305f5e1008381611a5057611a4f612bbf565b5b0492506008810190505b6127108310611a7f576127108381611a7557611a74612bbf565b5b0492506004810190505b60648310611aa25760648381611a9857611a97612bbf565b5b0492506002810190505b600a8310611ab1576001810190505b80915050919050565b6000604051905090565b600080fd5b600080fd5b60007fffffffff0000000000000000000000000000000000000000000000000000000082169050919050565b611b0381611ace565b8114611b0e57600080fd5b50565b600081359050611b2081611afa565b92915050565b600060208284031215611b3c57611b3b611ac4565b5b6000611b4a84828501611b11565b91505092915050565b60008115159050919050565b611b6881611b53565b82525050565b6000602082019050611b836000830184611b5f565b92915050565b600081519050919050565b600082825260208201905092915050565b60005b83811015611bc3578082015181840152602081019050611ba8565b60008484015250505050565b6000601f19601f8301169050919050565b6000611beb82611b89565b611bf58185611b94565b9350611c05818560208601611ba5565b611c0e81611bcf565b840191505092915050565b60006020820190508181036000830152611c338184611be0565b905092915050565b6000819050919050565b611c4e81611c3b565b8114611c5957600080fd5b50565b600081359050611c6b81611c45565b92915050565b600060208284031215611c8757611c86611ac4565b5b6000611c9584828501611c5c565b91505092915050565b600073ffffffffffffffffffffffffffffffffffffffff82169050919050565b6000611cc982611c9e565b9050919050565b611cd981611cbe565b82525050565b6000602082019050611cf46000830184611cd0565b92915050565b611d0381611cbe565b8114611d0e57600080fd5b50565b600081359050611d2081611cfa565b92915050565b60008060408385031215611d3d57611d3c611ac4565b5b6000611d4b85828601611d11565b9250506020611d5c85828601611c5c565b9150509250929050565b600080600060608486031215611d7f57611d7e611ac4565b5b6000611d8d86828701611d11565b9350506020611d9e86828701611d11565b9250506040611daf86828701611c5c565b9150509250925092565b600060208284031215611dcf57611dce611ac4565b5b6000611ddd84828501611d11565b91505092915050565b611def81611c3b565b82525050565b6000602082019050611e0a6000830184611de6565b92915050565b611e1981611b53565b8114611e2457600080fd5b50565b600081359050611e3681611e10565b92915050565b60008060408385031215611e5357611e52611ac4565b5b6000611e6185828601611d11565b9250506020611e7285828601611e27565b9150509250929050565b600080fd5b600080fd5b7f4e487b7100000000000000000000000000000000000000000000000000000000600052604160045260246000fd5b611ebe82611bcf565b810181811067ffffffffffffffff82111715611edd57611edc611e86565b5b80604052505050565b6000611ef0611aba565b9050611efc8282611eb5565b919050565b600067ffffffffffffffff821115611f1c57611f1b611e86565b5b611f2582611bcf565b9050602081019050919050565b82818337600083830152505050565b6000611f54611f4f84611f01565b611ee6565b905082815260208101848484011115611f7057611f6f611e81565b5b611f7b848285611f32565b509392505050565b600082601f830112611f9857611f97611e7c565b5b8135611fa8848260208601611f41565b91505092915050565b60008060008060808587031215611fcb57611fca611ac4565b5b6000611fd987828801611d11565b9450506020611fea87828801611d11565b9350506040611ffb87828801611c5c565b925050606085013567ffffffffffffffff81111561201c5761201b611ac9565b5b61202887828801611f83565b91505092959194509250565b600067ffffffffffffffff82111561204f5761204e611e86565b5b61205882611bcf565b9050602081019050919050565b600061207861207384612034565b611ee6565b90508281526020810184848401111561209457612093611e81565b5b61209f848285611f32565b509392505050565b600082601f8301126120bc576120bb611e7c565b5b81356120cc848260208601612065565b91505092915050565b6000602082840312156120eb576120ea611ac4565b5b600082013567ffffffffffffffff81111561210957612108611ac9565b5b612115848285016120a7565b91505092915050565b6000806040838503121561213557612134611ac4565b5b600061214385828601611d11565b925050602061215485828601611d11565b9150509250929050565b7f4e487b7100000000000000000000000000000000000000000000000000000000600052602260045260246000fd5b600060028204905060018216806121a557607f821691505b6020821081036121b8576121b761215e565b5b50919050565b7f4552433732313a20617070726f76616c20746f2063757272656e74206f776e6560008201527f7200000000000000000000000000000000000000000000000000000000000000602082015250565b600061221a602183611b94565b9150612225826121be565b604082019050919050565b600060208201905081810360008301526122498161220d565b9050919050565b7f4552433732313a20617070726f76652063616c6c6572206973206e6f7420746f60008201527f6b656e206f776e6572206f7220617070726f76656420666f7220616c6c000000602082015250565b60006122ac603d83611b94565b91506122b782612250565b604082019050919050565b600060208201905081810360008301526122db8161229f565b9050919050565b7f4552433732313a2063616c6c6572206973206e6f7420746f6b656e206f776e6560008201527f72206f7220617070726f76656400000000000000000000000000000000000000602082015250565b600061233e602d83611b94565b9150612349826122e2565b604082019050919050565b6000602082019050818103600083015261236d81612331565b9050919050565b7f4552433732313a20696e76616c696420746f6b656e2049440000000000000000600082015250565b60006123aa601883611b94565b91506123b582612374565b602082019050919050565b600060208201905081810360008301526123d98161239d565b9050919050565b7f4552433732313a2061646472657373207a65726f206973206e6f74206120766160008201527f6c6964206f776e65720000000000000000000000000000000000000000000000602082015250565b600061243c602983611b94565b9150612447826123e0565b604082019050919050565b6000602082019050818103600083015261246b8161242f565b9050919050565b600081905092915050565b600061248882611b89565b6124928185612472565b93506124a2818560208601611ba5565b80840191505092915050565b60006124ba828561247d565b91506124c6828461247d565b91508190509392505050565b60008190508160005260206000209050919050565b60006020601f8301049050919050565b600082821b905092915050565b6000600883026125347fffffffffffffffffffffffffffffffffffffffffffffffffffffffffffffffff826124f7565b61253e86836124f7565b95508019841693508086168417925050509392505050565b6000819050919050565b600061257b61257661257184611c3b565b612556565b611c3b565b9050919050565b6000819050919050565b61259583612560565b6125a96125a182612582565b848454612504565b825550505050565b600090565b6125be6125b1565b6125c981848461258c565b505050565b5b818110156125ed576125e26000826125b6565b6001810190506125cf565b5050565b601f82111561263257612603816124d2565b61260c846124e7565b8101602085101561261b578190505b61262f612627856124e7565b8301826125ce565b50505b505050565b600082821c905092915050565b600061265560001984600802612637565b1980831691505092915050565b600061266e8383612644565b9150826002028217905092915050565b61268782611b89565b67ffffffffffffffff8111156126a05761269f611e86565b5b6126aa825461218d565b6126b58282856125f1565b600060209050601f8311600181146126e857600084156126d6578287015190505b6126e08582612662565b865550612748565b601f1984166126f6866124d2565b60005b8281101561271e578489015182556001820191506020850194506020810190506126f9565b8683101561273b5784890151612737601f891682612644565b8355505b6001600288020188555050505b505050505050565b7f4552433732313a207472616e736665722066726f6d20696e636f72726563742060008201527f6f776e6572000000000000000000000000000000000000000000000000000000602082015250565b60006127ac602583611b94565b91506127b782612750565b604082019050919050565b600060208201905081810360008301526127db8161279f565b9050919050565b7f4552433732313a207472616e7366657220746f20746865207a65726f2061646460008201527f7265737300000000000000000000000000000000000000000000000000000000602082015250565b600061283e602483611b94565b9150612849826127e2565b604082019050919050565b6000602082019050818103600083015261286d81612831565b9050919050565b7f4552433732313a20617070726f766520746f2063616c6c657200000000000000600082015250565b60006128aa601983611b94565b91506128b582612874565b602082019050919050565b600060208201905081810360008301526128d98161289d565b9050919050565b7f4552433732313a207472616e7366657220746f206e6f6e20455243373231526560008201527f63656976657220696d706c656d656e7465720000000000000000000000000000602082015250565b600061293c603283611b94565b9150612947826128e0565b604082019050919050565b6000602082019050818103600083015261296b8161292f565b9050919050565b7f4552433732313a206d696e7420746f20746865207a65726f2061646472657373600082015250565b60006129a8602083611b94565b91506129b382612972565b602082019050919050565b600060208201905081810360008301526129d78161299b565b9050919050565b7f4552433732313a20746f6b656e20616c7265616479206d696e74656400000000600082015250565b6000612a14601c83611b94565b9150612a1f826129de565b602082019050919050565b60006020820190508181036000830152612a4381612a07565b9050919050565b7f45524337323155524953746f726167653a2055524920736574206f66206e6f6e60008201527f6578697374656e7420746f6b656e000000000000000000000000000000000000602082015250565b6000612aa6602e83611b94565b9150612ab182612a4a565b604082019050919050565b60006020820190508181036000830152612ad581612a99565b9050919050565b600081519050919050565b600082825260208201905092915050565b6000612b0382612adc565b612b0d8185612ae7565b9350612b1d818560208601611ba5565b612b2681611bcf565b840191505092915050565b6000608082019050612b466000830187611cd0565b612b536020830186611cd0565b612b606040830185611de6565b8181036060830152612b728184612af8565b905095945050505050565b600081519050612b8c81611afa565b92915050565b600060208284031215612ba857612ba7611ac4565b5b6000612bb684828501612b7d565b91505092915050565b7f4e487b7100000000000000000000000000000000000000000000000000000000600052601260045260246000fdfea2646970667358221220d312ff571c924687b772097938e3fc514bb00375aa1c18e2bacd7b88f353b23b64736f6c63430008120033",
  "linkReferences": {},
  "deployedLinkReferences": {}
}